:020000041000EA
:10000000002000082B0100100D0000008D010010E1
:1000100000000000000000000000000000000000E0
:100020000000000000000000000000008901001036
:10003000000000000000000089010010890100108C
:100040008901001089010010890100108901001048
:100050008901001089010010890100108901001038
:100060008901001089010010890100108901001028
:100070008901001089010010890100108901001018
:100080008901001089010010890100108901001008
:1000900089010010890100108901001089010010F8
:1000A00089010010890100108901001089010010E8
:1000B00089010010890100108901001089010010D8
:1000C00010B5064C2378002B07D1054B002B02D02E
:1000D000044800E000BF0123237010BDF8030008AE
:1000E00000000000D4150010044B10B5002B03D005
:1000F0000349044800E000BF10BDC04600000000F6
:10010000FC030008D41500100230800803D0013031
:100110000238FCD1C046C0467047EFF3108072B67B
:10012000704780F3108870477047FFF7FDFF72B685
:100130000F4C104DAC4209DA21686268A368043B99
:1001400002DBC858D050FAE70C34F3E70A490B4AEF
:100150000020521A02DD043A8850FCDC08480949A4
:100160000860BFF34F8F00F039FF00F0E9FEFEE7B3
:10017000E0150010F8150010F80300081406000838
:100180000000000808ED00E0FEE7FEE700B50420EF
:100190007146084202D0EFF3098002E0EFF30880D5
:1001A000043000F0CDFCFEE7014B18607047C046FC
:1001B00010060008044B1B681A00BA3212881B6A2A
:1001C0005043C0187047C046100600081D4B9842A7
:1001D0000FD010D840282FD005D8002830D01028B4
:1001E00028D019481EE0802828D080235B00984240
:1001F000F7D1144816E0154B984214D008D8A02324
:100200001B0698421CD0124B9842EAD1A0200BE06A
:10021000104B98420AD0104B984209D00F4B98428D
:10022000DFD10F487047A420C003FBE70D48F9E772
:100230000D48F7E70D48F5E70D48F3E70D48F1E7FE
:100240000020EFE706005200FF005200010000F01E
:10025000090000A0040000F0050000F0030000F019
:100260000100520002005200030052000100500041
:10027000020050000500520010B50020FFF79AFF61
:100280000A4B1C682300BC331B68C0180368002B92
:100290000ADB074B1868FFF799FF012263689A6031
:1002A0009A68002AFCD110BD0248FCE7100600083D
:1002B00014040008020050000D4B10B5186000280F
:1002C00004D0FE235B42038000234380094B1B685C
:1002D0001A0050321278002A08D051331B78002BB4
:1002E00004D002220449002000F0DAF810BDC04614
:1002F00024040008100600084501000810B5024853
:10030000FFF7DAFF10BDC046B8030008064B1B68B4
:10031000BC331B68C3181B68002B03DA89B2416029
:10032000002070470148FCE71006000801008A0021
:100330000368002B04DA89B2C26081600020704734
:100340000048FCE701008A00064B1B68BC331B68B1
:10035000C3181B68002B03DAC36800200B607047CA
:100360000148FCE71006000801008A00024B1A68E9
:10037000002A00D11860704728040008F0B52C242A
:100380006043154C1F0024681D0A2018FF242540D7
:100390002740124C1B0C26680760346A4560836056
:1003A000BA36368877433F1907612F0080376D01D1
:1003B0007F01E71964190A4D47611F043B43641923
:1003C000236000238361059BC2610162002B01D081
:1003D0001B888381F0BDC046280400081006000871
:1003E00008100000F0B5836885B002AD2B8003686B
:1003F000066A1933AB704368476A0095826AC16A1E
:10040000040003930369C068FFF7B8FF00213B00B5
:100410000A0000913000FFF7B1FF216B280000F0C7
:1004200043FB0022AB5E002B06DB1F2213401E3A6B
:100430009A401300014A136005B0F0BD00E100E0EE
:10044000F7B52C25134C6843266869433418256991
:1004500001937118002D19D08869002818D12E68D1
:10046000002E15DA6768012426004B689E40B446CA
:1004700013689EB263461B041E431660EA608C61DB
:10048000BC40019BA4B24B62AC60FEBD0248FCE7DD
:100490000248FAE72804000804028A0007028A00DA
:1004A0002C23434306480068C018C369934204D90B
:1004B000036A00209200D15070470248FCE7C04612
:1004C000280400080A028A0073B500264269040065
:1004D000D56801962B0CB34221D01B04136013681E
:1004E000194B00691B68BC331B68C3181B68B342F7
:1004F00015DA01A9FFF728FFB0420CD10198E26993
:1005000003681E0CDBB29A4205D9226A9B009B58F5
:10051000002B00D0984731002069FFF7F7FEADB2FD
:10052000002D09D063691D6000251B68636AAB421A
:1005300005D098476562A56163691B6873BDA36AAE
:10054000002BF8D09847F6E7100600082C2310B5CA
:100550004343034A1068C018FFF7B6FF10BDC046FA
:1005600028040008F8B5194B0F001B681A00333235
:100570001278824227D9002925D01F250A68154004
:1005800021D11900BA310C88114E60431C6AD2087F
:10059000041929007868346000F084FF29002000E5
:1005A000FFF7B4FE3A0029003068FFF7C1FE041ED1
:1005B00007D101003068FFF7A9FE03002000002BDF
:1005C00000D00448F8BD0448FCE7C0461006000807
:1005D0002C04000801018A0003018A0010B5002ADA
:1005E0000DD1002914D10B4B1A681300BA331B88A4
:1005F0005843136AC018084B1860080010BD002942
:1006000006D0064B196019005A60FFF7ABFFF5E7FB
:100610000348F3E7100600082C040008BC03000898
:1006200003018A00F7B5184F04003B680191DE68AA
:100630003368834226D90025A94202D1FFF76DFD18
:10064000050038680368002B1ADA1F2201232240B4
:10065000934064097268A4001419226813420DD0F3
:100660009A43226000240021FFF750FE019B002BDB
:1006700002D12800FFF755FD2000FEBD034CF2E734
:10068000034CF3E7034CF7E72C0400080201880051
:100690000301880004018A000A4B1B68DB681A68A2
:1006A00082420DD959681F23420918401E3B8340DE
:1006B000920050581840431E9841034BC018704791
:1006C0000248FCE72C0400080001880004018A00AD
:1006D000054B1B681A0088321B6812689B18186843
:1006E000000AC0B27047C04610060008044B1B68E1
:1006F0001A0088321B6812689B181868000E704731
:1007000010060008024B18694007C00F7047C0462A
:1007100000002740A6220549D2008B580220DB4367
:100720009B0702D0012388581840704700002640DC
:1007300010B5FFF7EFFF0023022801D1014B1B6822
:10074000180010BD34040008094A83009B18D02209
:100750009200985807221040042807D1C022920026
:1007600098581F2303408020400018437047C0461C
:100770000000264010B5FFF7E7FF03281CD005D87E
:10078000012816D023D9FFF7D3FF10BD1223FF3362
:10079000984213D01423FF33984215D0033B98425C
:1007A00010D10C4A0C4BD358002B0BDA80200002DE
:1007B000EBE70A4B1868E8E7094BFBE7FFF7A2FFF6
:1007C0000028F3D10020E0E7024A064BEBE7064899
:1007D000DBE7C046000026400C050000300400089E
:1007E0008C0400083C05000000127A00B023154A72
:1007F000DB00D35810B59903DB01DB0F890BC37104
:10080000114B0160D3580F24D904DB01DB0D0381A8
:10081000B123DB00D358C90C8180190021408172BB
:1008200019092140C172D9029B009B0F8373074BAA
:10083000C90CD35881815A05DB01520FDB0D82713F
:10084000038210BD00002640840500008C050000D6
:1008500010B5104B421E1B683F331B78934216D9CC
:100860007F221F248030FF300B4B8000C3581A407A
:100870000A701A0C2240180A8A701A012040E240BD
:10088000487000209B009B0FCA700B7110BD03487D
:10089000FCE7C046100600080000264001004A00A0
:1008A000F0B589B003AC14220021200000F0FAFD5D
:1008B0002000FFF79BFFB0231A4ADB00D258002329
:1008C0009A4203DAA37B023B5A1E9341E579002644
:1008D0006A1E95410135B34221D0A488B4421ED08E
:1008E000039B30000193FFF745FF2A003300070008
:1008F0003100200000F0C0FC0C0005003300019A1C
:100900003100380000F0B8FCE6076A08324363089B
:10091000801859412A00230000F08EFC06003000A8
:1009200009B0F0BD00002640F0B50026244B85B08C
:100930001B6807003F331B78B3423ED0B0423CD027
:1009400083423AD30522310002A800F0ABFD02A990
:100950003800FFF77DFF3B008033FF33194A9B00CF
:100960009B58B34229DA02AB1B79022B25D002AB8C
:100970005C78B44221D09D78B5421ED01B783800F7
:100980000193FFF7F7FE2A00330007003100200033
:1009900000F072FC0C0005003300019A31003800B1
:1009A00000F06AFCE6076A08324363088018594180
:1009B0002A00230000F040FC0600300005B0F0BD26
:1009C000100600080000264010B5041E04D1FFF7F1
:1009D00067FF002806D008E0064B1B683F331B78F2
:1009E000834203D22000FFF7C5FE10BDFFF79CFF36
:1009F000EFE7C04610060008E02210B50124094BBD
:100A000080009200C018835880589B069B0F9C4022
:100A10000F231840FFF7D8FF63081818210000F0D3
:100A20007FFB10BD00002640144B30B51A68072428
:100A300013002C331B781F2B15D883081D00A543EA
:100A40002C1E0FD103342040A040814012689B002F
:100A50002032D3180A00FF2181401C6862401140F7
:100A60006140196030BD802320401B06184380235D
:100A70009B011268C91889008850F3E71006000826
:100A8000064B9A680300064810339B00824202D14D
:100A9000985899507047034AD058FBE700ED00E0A2
:100AA0000000000800000010F8B506000D00002846
:100AB0003AD00023C05E002828DBB178FFF7B4FFEE
:100AC0000024FF22032794460023F05E716883B25E
:100AD0001F40FF006646BA4089013140D243B94009
:100AE000002815DB114E83089B009B19C026B60019
:100AF0009F593A40114399510D4B9A680D4B9A42B8
:100B000002D12900FFF7BCFF2000F8BD0A4CD8E74E
:100B10000F263340083B064E9B089B009B19DE695D
:100B200032401143D961E7E7034CEDE700E100E013
:100B300000ED00E00000000801005600FEE70000A4
:100B400002680A4B10B51A6042685A6082689A605F
:100B5000C268DA6002691A6142695A6182699A61FF
:100B6000C269DA61FFF7EAFF10BDC046D80300088A
:100B7000B0235B055A782120002A01D05878C0B2F2
:100B80007047B0235B059A89002A02D0988980B209
:100B9000704780204000FBE77FB5274B86000D00A3
:100BA000F458042901D0012927D100200FE0A368BF
:100BB0002B420BD1E36829001A685B68029201930B
:100BC000039302A8236898471C4B1C606469002C9F
:100BD0000BD01B4B9842EAD1012DE8D1174B184896
:100BE0001A68184B9A5104B070BD012DFBD1144BFB
:100BF0009842F3D0134B9C51F5E7022906D10F4BD5
:100C00001B68181EEFD01C6903E01C006369002BF1
:100C1000FBD10020002CE6D0A3682B4209D1E36869
:100C200029001A685B6802920193039302A8236863
:100C300098472469EEE7C046780400087404000869
:100C4000FF004200600400081A4B1B68190088313D
:100C50001A68096851180968016219008C3109681D
:100C60005218126842621A0046321278002A1FD0C7
:100C70009A68E0321268D2061AD5F222DB68D201F5
:100C80009A580260F022D2019A5842600A4A9A5851
:100C900082600A4A9A58C260094A9A580261094A0F
:100CA0009A584261084A9A588261084A9B58C3611F
:100CB0007047C0461006000804780000087800005D
:100CC0000C780000107800001478000018780000FC
:100CD0001A4B1B681A008832196812688A18016A50
:100CE00011601A008C32196812688A18416A116002
:100CF0001A0046321278002A1ED09A68E032126832
:100D0000D20619D5F0224168DB68D201995081687A
:100D10000B4A9950C1680B4A995001690A4A995087
:100D200041690A4A99508169094A9950C169094A39
:100D300099500168E83299507047C0461006000883
:100D400004780000087800000C780000107800009B
:100D50001478000018780000F7B50700FFF708FFC7
:100D6000664D06006B68002B00D07DE0FFF7D5F9DB
:100D70006B680090002B00D089E0614C2268130062
:100D8000BA33198807234B43126A9B181A68002A42
:100D9000FCDADB68DA0021D51B0F1B0759480193E9
:100DA000FFF752FF5849212E00D075E022689020AD
:100DB000130088331C68136800011C1923680B405A
:100DC0000343236013008C3312681B68D3181A681E
:100DD0001140084318604B4B019A13438022484E40
:100DE0009205316813430A00BA32108807220024A2
:100DF0004243096A5218D36054605368FFF7C1FE3A
:100E000080235B0098425DD1380000F061FB3268BE
:100E10001300BA33198807234B43126A9B181A68C8
:100E2000002AFCDADF68FB0003D538010009FFF770
:100E30004FFF364B32681F401300BA33198807231F
:100E40004B43126A00989B180022DF605A60FFF73C
:100E500068F9002C0FD16B68002B03D0082101200A
:100E6000FFF79AFE2000FEBD01210800FFF794FE67
:100E7000041E00D17AE76B68002B03D00221012009
:100E8000FFF78AFE224B9C42ECD0224CEAE7042179
:100E90000120FFF781FE70E720688022030088337D
:100EA0001C68036852001C1923680B40134323601D
:100EB00003008C3300681B68C318186801400A439C
:100EC0001A6088E733681A00BC32196A126852182F
:100ED0001168002910DBBA331B889A181368002B9D
:100EE0000ADB04230C4A11690B431361012F01D063
:100EF00030BF8CE720BF8AE7054C88E778040008FC
:100F00001006000838040008FF00FFFFFFFFFFDFA6
:100F100005004200FF00420000ED00E0C0228020FA
:100F2000064952008B58C0059B009B0803438B5019
:100F3000802388581B0603438B50704700002640CF
:100F400010B562B6034800F0C1F80020FFF704FFB7
:100F5000FBE7C0460020001010B50020FFF7F6FAAE
:100F600010BD704710B50020FFF746FD041E25D0C8
:100F7000134B1860FFF7BAFB411C200000F0D0F8BB
:100F8000104B04001860FFF7A3FB411C200000F089
:100F9000C7F80D4B441E18600C49200000F0C0F843
:100FA000FA210B4B013018708900200000F0B8F8CE
:100FB000084B01301860084BC003186010BDC046D4
:100FC000C4000008C8000008C000000840420F002C
:100FD000D4000008D0000008CC00000810B521485B
:100FE000FFF7E2F8B022E02130201F4CD200A358D6
:100FF00089005B005B08A3506358834363508023E0
:101000005B04A350194B1A4AE250A0220433920108
:10101000E250FF22174BE250FFF780FFC022012170
:101020005200A3588B43A350FFF79BFFFFF79AFF93
:10103000114B03201A681300BA33198807234B4356
:10104000126A80219B180022DA605A600B4AFFF76F
:10105000C5FA0B48FFF78AF90A48FFF7C3F9FFF70B
:101060004DF910BDE014001000002640840500007A
:10107000010002008C05000010060008C4030008EF
:1010800090040008A0150010024BD86F03231840ED
:101090007047C0460400214010B5FFF73EF80749ED
:1010A000074ACB6F1A40074B1343CB6710230649FF
:1010B0000A681A42FCD0FFF734F810BD0400214042
:1010C000FCFF00000100FA058800214070B50F4CBC
:1010D0000600FFF722F8E36F0500DB439B0701D111
:1010E000FFF7DAFFB0230A4A9B00D650E36F094AA4
:1010F00009491A40094B1343E36710230A681A424F
:10110000FCD02800FFF70DF870BDC0460400214058
:1011100000002140FCFF0000880021400300FA0588
:10112000002243088B4274D303098B425FD3030A26
:101130008B4244D3030B8B4228D3030C8B420DD339
:10114000FF22090212BA030C8B4202D312120902C7
:1011500065D0030B8B4219D300E0090AC30B8B4205
:1011600001D3CB03C01A5241830B8B4201D38B03B3
:10117000C01A5241430B8B4201D34B03C01A524158
:10118000030B8B4201D30B03C01A5241C30A8B429B
:1011900001D3CB02C01A5241830A8B4201D38B0286
:1011A000C01A5241430A8B4201D34B02C01A52412A
:1011B000030A8B4201D30B02C01A5241CDD2C3099C
:1011C0008B4201D3CB01C01A524183098B4201D318
:1011D0008B01C01A524143098B4201D34B01C01A03
:1011E000524103098B4201D30B01C01A5241C3087B
:1011F0008B4201D3CB00C01A524183088B4201D3EA
:101200008B00C01A524143088B4201D34B00C01AD5
:101210005241411A00D20146524110467047FFE741
:1012200001B5002000F006F802BDC0460029F7D045
:1012300076E770477047C046002B11D1002A0FD1C6
:10124000002900D1002802D00021C943081C07B49E
:10125000024802A14018029003BDC046D9FFFFFF1B
:1012600003B4684601B5029800F030F8019B9E4631
:1012700002B00CBC7047C046F0B5CE4647461504D8
:101280002D0C2E0080B50704140C3F0C9946030C5E
:101290007E435D43674363437F19340CE4199C46E6
:1012A000A54203D980235B029846C4444B4643437E
:1012B0005143250C36046544360C2404A4195B19EB
:1012C000591820000CBC90469946F0BDF0B54F4629
:1012D0004646D646C0B5040082B00D0091469846F9
:1012E0008B422FD82CD04146484600F0CFF8290039
:1012F0000600200000F0CAF8331A9C46203B9A46AC
:1013000000D576E04B46524693401F004B4662465E
:1013100093401E00AF4228D825D05346A41BBD41A0
:10132000002B00DA7BE000220023009201930123CE
:10133000524693400193012362469340009318E084
:101340008242D0D900220023009201930A9B002BF5
:1013500001D01C605D600098019902B01CBC9046F1
:101360009946A246F0BDA342D7D90022002300929D
:1013700001936346002BE9D0FB079846414672086B
:101380000A437B0866460EE0AB4201D1A2420CD86C
:10139000A41A9D41012024196D410021013E241809
:1013A0004D41002E06D0AB42EED9013E24196D41CD
:1013B000002EF8D100980199534600196941002B7D
:1013C00023DB2B005246D3402A006446E2401C0037
:1013D00053461500002B2DDB26005746BE40330038
:1013E00026006746BE403200801A99410090019164
:1013F000ACE7624620239B1A4A46DA406146130056
:1014000042468A4017001F4380E7624620239B1A0A
:101410002A0066469A402300F3401343D4E762460D
:10142000202300219B1A0022009101920122DA4020
:10143000019280E72023624626009B1ADE402F009F
:10144000B0466646B74046463B003343C8E7C04611
:101450001C2101231B04984201D3000C10391B0AE4
:10146000984201D3000A08391B09984201D30009A8
:10147000043902A2105C40187047C04604030202FF
:1014800001010101000000000000000010B500296A
:1014900003D1FFF7DDFF203002E0081CFFF7D8FF83
:1014A00010BDC04603001218934200D17047197056
:1014B0000133F9E7F8B5C046F8BC08BC9E46704752
:1014C000F8B5C046F8BC08BC9E4670470000000056
:1014D00001B40248844601BC604700BFA102000875
:1014E0000000214000002540000001400000344081
:1014F00000002440000031400000324000001F4145
:10150000000023400000114000001D411010101089
:10151000101010101010108019005500F000050177
:1015200005013B04101C01010FC000000004000075
:1015300001010101011D3A577896000000000008E2
:101540002000101208000000001F00000010000F13
:10155000002000023F06080E00080009000A000BE8
:1015600024282C30340000001000000090000000FF
:1015700088000000080000008000000004F0000067
:1015800000F00000400200002005A000D001000192
:101590008001A00140019001B00120001000000076
:1015A0000300000001000000010000000000000036
:1015B00005036000040000000100000000000000BE
:1015C000010000000604600008000000F0050008AB
:1015D000590F001000000000F4FCFF7F0100000024
:1015E0000000001000000008C000000000160010FD
:1015F000C0000008F8020000F80300081C02000008
:1016000000093D0000127A0000093D000000D007EB
:10161000A00F000004000000E9000010C10000104D
:1016200080B230B5C00020D0104B07221C682300C8
:10163000BA331B885A43236AD31819680029FCDA85
:101640003E210B4B062519600A4B0B491960A3215B
:101650000A4BC9005D500A4958505858206A121860
:10166000002050605A58002AFCDA30BD10060008ED
:1016700004012640080126401E1F000000002640ED
:101680001C05000010B54378FF2B11D100F004F9C0
:101690000400032000F008F9C3685A6801231168A8
:1016A0001943116011681942FCD1200000F0E4F8E0
:1016B00010BDF7B500900020019100F0F5F83F4D06
:1016C00006002B681A005033BC3214681B780419CA
:1016D000002B5AD000F0F8F8070003281BD000F0C8
:1016E000DBF8374A374B0500D358002B3EDA364A31
:1016F0000121300000F0F0F8002837D10198FFF701
:101700008FFF009B002B3ED02368002BFCDB00F0FA
:10171000ABF804002BE0062000F0C6F82B68BC33C1
:101720001B68C0180368002B02DA284C2000FEBD9D
:10173000002000F0A9F8264B9842F6D00023254A55
:1017400019001268012000F0B7F80025A842ECD17A
:10175000002000F099F81E4A1F4B904203D09D4292
:10176000E3D00135F4E79D42B9D1DEE7174C032FF2
:1017700005D10121002000F0B7F80028F9D1280098
:1017800000F07AF8D2E7154CF1E700F085F80E4A40
:1017900005000121300000F09FF8002809D1009BCE
:1017A000002B08D02368002BFCDB00F05DF8040060
:1017B000E5E7064CE3E7094CE1E7C0461006000800
:1017C000000026401C05000014040008050052001B
:1017D0000101880024040008F049020001005000C3
:1017E000184BF7B51B68184A5C68042311690B4352
:1017F0001361012824D030BF2300FC331B69002B68
:101800001DD1A320114B1249124AC0000F681E5867
:1018100015680195104D0D6006251D503E20106085
:101820000E483E351D501D58002DFCDA0C48FC3486
:1018300020610F60A321C9005E50019B1360F7BDBA
:1018400020BFD9E71006000800ED00E000002640A8
:1018500008012640040126401E1F00001C05000050
:10186000AAAAAAAA0000000001B40248844601BC4A
:10187000604700BF7902001001B40248844601BCF1
:10188000604700BF2301001001B40248844601BC38
:10189000604700BF9906001001B40248844601BCAD
:1018A000604700BF1B01001001B40248844601BC20
:1018B000604700BFB501001001B40248844601BC76
:1018C000604700BF4104001001B40248844601BCD7
:1018D000604700BF8910001001B40248844601BC73
:1018E000604700BF3103001001B40248844601BCC8
:1018F000604700BF25060010000000000000000047
:1019000000000000000000000000000000000000D7
:0419100000000000D3
:1020000000780408D12200100D00000045230010C4
:102010004523001045230010452300100000000058
:10202000000000000000000000000000412300103C
:102030004123001000000000412300104123001044
:1020400041230010412300104123001041230010C0
:1020500041230010412300104123001041230010B0
:1020600041230010412300104123001041230010A0
:102070004123001041230010412300104123001090
:1022800041230010412300104123001010B5054CDC
:10229000237833B9044B13B10448AFF30080012312
:1022A000237010BDBC4B000800000000244E01103C
:1022B00008B5034B1BB103490348AFF3008008BDC9
:1022C00000000000C04B0008244E0110704770470A
:1022D000FFF7FCFF72B6144C144DAC4209DA2168CA
:1022E0006268A368043BA2BFC858D050FAE70C3418
:1022F000F3E70F490F4A00209142BCBF41F8040B9D
:10230000FAE70D480D490860BFF34F8F00F028FF32
:1023100000F00AFFFFF7DBFF0CF014FE00F05CFF9B
:102320000CF0FCFDFEE70000507D0310687D0310FB
:10233000BC4B00085C6200080020000808ED00E0CB
:10234000FEE7FEE700B504207146084202D0EFF335
:10235000098002E0EFF3088004300AF0C7FDFEE7D1
:1023600038B50B4D0B4928460AF036FD0A4C636B15
:102370001D600A4801F03AFA204600F0E1FF00F043
:10238000E3FF00F0E9FF064802F0E0FE38BD00BFC1
:102390002428011011270010901F0110F5230010B0
:1023A000A523001008B5054B984200D008BD044A8B
:1023B0000121002002F0D0FEF8E700BFBF000100BD
:1023C000F74B000808B5094B1B78022B00D108BD5C
:1023D00002F0A2F80028FAD10021084602F0B6F86F
:1023E0000028F4D002480DF0E9FAF0E76D5000083B
:1023F0007823011030B583B004460D4644F2100333
:10240000984239D844F20603984227D243F2020395
:1024100098425FD00CD943F2060398425ED043F253
:102420001203984240F0DE8095480DF0C7FADDE0D7
:1024300041F2010398423CD042F20403984203D196
:1024400090480DF0BBFAD1E0B0F5805F40F0CA8053
:102450008D480DF0B3FAFFF7B5FFC7E0A0F5804354
:10246000063B0A2B00F2BE80DFE803F0593C44BC77
:10247000BCBCBCBCBCBC400045F21703984200F297
:10248000B180B0F5A04F40F2AD80A4F5A043013B70
:10249000162B00F2A780DFE803F050575BA5A5A537
:1024A000A5A5A5A5A5A5A591A5A5A5A5A5A5A5A5F0
:1024B0005F000B78012B05D0032B07D073480DF07C
:1024C0007DFA93E072480DF079FA8FE071480DF0D3
:1024D00075FA8BE070480DF071FA87E06F480DF0E7
:1024E0006DFA83E06E480DF069FA7FE06D480DF0FB
:1024F00065FA7BE06C4B1B88ADF804309DF8053025
:10250000032B03D8694AD35C002B6FD168480DF0C8
:1025100055FA684B00221A70FFF754FF66E0664BCD
:102520001B78022B05D065480DF048FA00F010FF2B
:102530005CE063480DF042FA58E02A885A4B1A8052
:1025400060480DF03BFA51E05F480DF037FA4DE07E
:102550005E480DF033FA49E05D480DF02FFA5D4B0F
:102560001D606B88132B16D05A4B1B685B881B2B86
:102570003CD159480DF022FA00F0A6F9574B1B68E0
:102580009B69D3F818325B68554A11781970554821
:102590000DF08EF92AE054480DF010FA00F0A4FB7B
:1025A0000146524B18704D4B1B689B69D3F878312C
:1025B0005B6818704E480DF07BF9D5E74D4B1D60F8
:1025C0002B890F2B14D04B4B1B681A89172A1ED04E
:1025D000484B1B681A891F2A25D0464B1B681A894D
:1025E000232A47D0214644480DF062F903B030BD9C
:1025F0002B68197841480DF05BF93E4B1B681B684E
:102600001878003818BF012000F062FBDBE71B6878
:1026100019783B480DF04CF9364B1B681B6818784D
:1026200000F02AFAD4E71B68197836480DF040F913
:1026300035480DF0C3F92F4D2B681B68187800F052
:1026400059FB2B681B681B78302B05D0312B0AD027
:10265000F02000F099FAC0E7002000F0A3F9002074
:1026600000F036FBF4E7012000F09CF9012000F0B7
:102670002FFBEDE71B68197824480DF019F9B1E735
:10268000BC24011028240110A42301100C240110E3
:10269000C4230110EC2301105C24011090240110CC
:1026A000DC240110FC240110F84B000878500008CD
:1026B00028250110F74B00086D5000087025011007
:1026C0004C25011094250110B4250110D8250110C6
:1026D00008260110FC4B0008802601103850000825
:1026E000F64B0008B826011040260110F54B0008F3
:1026F00064260110184C0008E4270110D0260110B0
:10270000102701104C27011088270110A427011061
:1027100008B502F0B9F908BD10B5064B01221A70D0
:10272000054C204604F0BAF84FF40051204604F05E
:10273000CEF810BD004C0008044C000810B50C4C3D
:10274000204604F035F84FF40051204604F0BFF85D
:10275000204604F0A3F800220649204604F0C3F8FE
:10276000012307220021204604F0CEF810BD00BF4F
:10277000044C00081927001008B50E4B1B78ABB9A4
:102780000D480DF01BF90D4B1B68986901220521BE
:1027900000F5207006F0B2FE094805F0B5FE0028ED
:1027A000FAD14FF4807004F01DFF08BD00200BF03B
:1027B00099F8FAE794500008002801105C520008CC
:1027C000FC52000808B5FFF7CBFDFFF7B7FF62B674
:1027D00008BD000000B583B0FFF7CEFF27F082F8F8
:1027E0001A4B1B78DBB1194B00221A70184B1B785F
:1027F000022B17D0174B1B88ADF804309DF805301D
:10280000032B03D8144AD35C022B14D0134B1B6840
:1028100098690122052100F5207006F06FFE03B0D3
:102820005DF804FB0D4B1B689869052100F52070CD
:1028300006F07AFEF3E7094B1B6898690022052130
:1028400000F5207006F05AFEE9E700BF004C0008D2
:102850006D500008F84B0008785000085C520008E2
:1028600000B585B08DF80C00002301930A23009376
:10287000012303AA4A21124803F094FB18B1FF2058
:1028800005B05DF804FB012301930A2300930223A2
:1028900002AA4A210A4803F0D1FB08B1FF20EFE762
:1028A0009DF80800420010469DF90930002B05DB19
:1028B00010F4807FE4D040F0FE00E1E7501CF7E721
:1028C000384D00080000000008B52DED028B0020F7
:1028D000FFF7C6FF0BF064FE00221D4B0BF0CAFE93
:1028E0000CF0FAF808EE100AB5EEC08AF1EE10FA14
:1028F0000AD9DFED187AB4EEE78AF1EE10FA0BDBB5
:10290000154BFF221A7002E0134B00221A7018EECA
:10291000100ABDEC028B08BD0BF054FE00220F4BD9
:102920000BF0D2FF08A3D3E900230BF0A3FE0CF0B9
:10293000D3F80BF0B9FC07EE900AFCEEE77A17EE3D
:10294000903A054A1370E2E70000000000E06F4093
:102950000000E03F00004843F64B000800006940DB
:1029600000B585B0002303930293019301220092E6
:10297000FF224821084804F093F910B105B05DF832
:1029800004FB06480DF01AF84FF47A720449024825
:1029900004F048FAF2E700BF1C4C00082C28011094
:1029A0000000484208B518B1034804F083FA08BD96
:1029B000014804F097FAFAE71C4C00082DE9F043AF
:1029C00085B0DFF8AC9000240394029401940125B3
:1029D00000952346FF224C21484604F061F9DFF8B8
:1029E000948003940294019400952346FF224E2183
:1029F000404604F055F91A4F03940294019400954F
:102A00002346FF225421384604F04AF9154E039418
:102A10000294019400952346FF225621304604F08B
:102A20003FF9114C42F210722146484604F0FAF97F
:102A300042F210722146404604F0F4F942F210725C
:102A40002146384604F0EEF942F210722146304633
:102A500004F0E8F9054B71221A7005B0BDE8F08367
:102A6000C84C0008004D000800009642544C000875
:102A7000584C0008904C000870B5044600F034F93A
:102A80000546C6B22F4804F02DFA2F4804F02AFA62
:102A90002E4804F027FA2E4804F024FA0A2004F005
:102AA000B9FD302C18D0312C24D0322C2FD0332C1F
:102AB0003AD0342C13D1234804F014FA244C204685
:102AC00004F010FA214804F00DFA204604F00AFA46
:102AD000204B71221A7002E016F0100F00D170BD69
:102AE000184804F0E7F9194804F0E4F9194B772283
:102AF0001A70F4E716F0400FF1D0134804F0DAF939
:102B0000134804F0D7F9134B73221A70E7E716F055
:102B1000200FE4D00B4804F0CDF90D4804F0CAF9B9
:102B20000C4B61221A70DAE715F0800FD7D00648F7
:102B300004F0C0F9054804F0BDF9064B64221A7090
:102B4000CDE700BF584C0008904C0008C84C000866
:102B5000004D0008544C000808B500232822292104
:102B6000074803F08FF908B101BEFEE705490448A4
:102B700003F0FEF908B101BEFEE7002008BD00BF6A
:102B8000384D0008A024000800B585B003238DF857
:102B90000C308DF80D0001230193002300930223D4
:102BA00003AA2121024803F0FDF905B05DF804FBFA
:102BB000384D000810B584B001248DF80C408DF814
:102BC0000D000D480CF0FAFE01940023009302233F
:102BD00003AA2121094803F0E5F940B99DF80C202A
:102BE0009DF80D1006480CF063FE04B010BD0548BA
:102BF0000CF0E4FEF9E700BF44280110384D00084E
:102C0000602801108428011000B585B001238DF8DB
:102C10000C30002201920A22009203AA21210B48C3
:102C200003F0C0F918B1FF2005B05DF804FB0123E3
:102C300001930A22009202AA2121044803F0FEF91E
:102C400008B1FF20F0E79DF80800EDE7384D0008D7
:102C500000B585B000238DF80C300193009301235B
:102C600003AA21210C4803F09DF910B172B601BEF0
:102C7000FEE7012301930022009202AA21210648C7
:102C800003F0DCF910B172B601BEFEE79DF8080052
:102C900005B05DF804FB00BF384D000810B584B0E6
:102CA000094C002303930293019301220092FF2217
:102CB0005221204603F0F4FF05220449204604F087
:102CC000B1F804B010BD00BFEC4D00080000484250
:102CD00008B518B1034804F0EDF808BD014804F048
:102CE00001F9FAE7EC4D000808B5FFF7B1FF00F075
:102CF000F00008BD10B50446FFF786FFC0B2302CC7
:102D000006D0312C09D0322C0CD0332C1ED010BD63
:102D100000F0FE00FFF74EFFF9E740F00100FFF77B
:102D200049FFF4E7134B1B68AA2B0BDD114BB422B0
:102D30001A60104C216810480CF0BAFD206800F0B1
:102D40004FF8E4E70A330B4A1360F2E7094B1B68BC
:102D5000092B0BDC074B00221A60064C2168064841
:102D60000CF0A6FD206800F03BF8D0E70A3B014AD2
:102D70001360F2E7244E0008A828011010B584B0B3
:102D8000002303930293019301220092FF224A2120
:102D90000E4803F085FF044630B17CB10C480CF0BE
:102DA0000DFE204604B010BD0A480CF007FE32228A
:102DB0000949064804F036F80446EEE707480CF0E7
:102DC000FDFD024804F076F8E8E700BF284E000851
:102DD000E0280110B82801100000F040CC280110B4
:102DE00038B504460BF0DCFB00220F4B0BF06CFDFA
:102DF00000220E4B0BF03EFC00220D4B0BF084FA30
:102E00000BF06AFE014632220A4804F00BF8054630
:102E100008B1284638BD074804F04CF8214606485A
:102E20000CF046FDF5E700BF00806640000024403E
:102E300000000440284E0008F828011008B500F0F2
:102E400047F800F003F800F009F808BD08B502489B
:102E500002F03EFD08BD00BF0829011010B5124C5C
:102E6000124A0021204606F0DBFB114802F030FD3B
:102E7000104A0121204606F0D3FB0F4802F028FD3E
:102E800004F540740D4A0621204606F0C9FB0C48A3
:102E900002F01EFD0B4A0721204606F0C1FB0A483E
:102EA00002F016FD10BD00BF000032407C29011069
:102EB000B0290110B4290110E8290110442901109A
:102EC000782901100C29011040290110FEE70000AB
:102ED00030B583B0962100200AF05AF809F0EAFFD5
:102EE000D0B101200AF000FF0AF0A6FE0AF080FF30
:102EF0000AF06AFF0021084609F024F8002008F0D3
:102F00008FFF012008F074FF002008F02FFF5B4BBB
:102F10001B6893F83F400DE009F0BCFF09F090F802
:102F200009F084F8012009F09FF8DAE7204609F05B
:102F3000BFFA013C002CF9D10021012009F0C8F8AA
:102F4000002008F0EDFF00287CD009F075F9002181
:102F5000084609F0BDF80021084608F0C1FF05F059
:102F60008DFE474D002400942346224621462846E4
:102F700006F062FA0094234622460121284606F014
:102F80005BFA404809F018F8002867D1012008F0E2
:102F900017FF002008F044FF002008F029FF002060
:102FA00008F0E4FE0021012009F092F80021084613
:102FB00009F08EF80021022009F08AF80021032090
:102FC00009F086F80021042009F082F82E4809F063
:102FD0004DF9002845D12D4809F0F8F9002843D1D2
:102FE0000021084608F07CFF0021084608F0AAFFEF
:102FF0002749012009F082FAC8BB42F21071012072
:1030000009F00AFBB0BB002008F0CAFE09F00EF878
:10301000012009F029F86421002009F0B9FF00F02F
:1030200049F81C4802F054FC1B4802F051FC1B48B4
:1030300002F04EFC1A4802F04BFC1A4802F048FC21
:1030400003B030BD09F072F840F2111398427FF4DA
:103050007CAF0121002008F043FF76E70520FFF751
:1030600035FF0420FFF732FF0420FFF72FFF032076
:10307000FFF72CFF0320FFF729FF00BF5C52000879
:103080000000324040420F00EC290110400D0300C7
:10309000142A0110002A0110042A0110082A011024
:1030A0000C2A0110102A011008B5012006F006FDB7
:1030B00008BD704710B5002009F002FE00B910BD30
:1030C0000446114B186008F0A1FE0130B4FBF0F08B
:1030D0000E4B186008F0B2FE0130B4FBF0F40C4B5C
:1030E0001C60013C0B4BA3FB04239B0C01330A4ADD
:1030F00013700A4BA3FB04239B090133084A136096
:10310000DB03084A1360DAE7AC240008B0240008A7
:10311000A824000883DE1B43BC240008D34D6210A2
:10312000B8240008B424000808B50A4805F014FCC7
:10313000FFF7BFFFFFF7BEFF00221146032006F096
:1031400013FD054806F056FB044806F0ABFB06F0FD
:103150000DF808BD28390110644E00081C2A011022
:1031600008B500F0E6F8074AD2F8883043F4700357
:10317000C2F88830BFF34F8FBFF36F8F00F0DDF8D8
:1031800008BD00BF00ED00E008B504480AF0D2F821
:1031900008B1002008BD0248FCE700BFC0240008B9
:1031A0000000020610B502F091FB044628B144B1BC
:1031B000FFF744FE5CB1204610BD04F0CBF9044695
:1031C000F5E740F6E441002004F01AFAF0E7FFF7D3
:1031D000DBFF0446EFE7000010B582B0FFF7E2FF27
:1031E00000B101BE4FF4E1330093FF231A463421AE
:1031F00035200BF031F800B101BE0123062219463B
:103200002D2002F063FA00F04FF80446FFF7A4FC0B
:10321000F020FFF7B9FC0020FFF7CCFCFFF7CEFB56
:10322000FFF79EFBFFF7AAFD0020FFF7D9FDFFF790
:1032300035FD54B907480CF03BFB07480CF0BEFBCA
:10324000FFF7C0FAFFF7C6FAFCE704480CF0B6FB3C
:1032500001BEEFE7702A01107C2A0110502A0110EC
:1032600008B50E4A13785B0013700D4B1B68986904
:10327000062100F5207006F039F920B1074A1378CD
:1032800043F001031370054B1B78802B00D008BD61
:10329000044A137801331370F9E700BFDC240008F7
:1032A0005C520008F44B000830B587B0194B0FCBC7
:1032B00006AC04E90F000123022200212E2002F0B7
:1032C00005FA0022FF21144804F0DEFC18B138B1E1
:1032D00060B107B030BD02A90F4804F025FDF6E744
:1032E00042F210710C4804F03BFCF1E70A4C04F187
:1032F000080500220949284604F0B2FA012200928A
:1033000003232946204604F0EBFA204604F0E6FCAD
:10331000DFE700BFA82A0110EC4F0008613200105F
:103320000230800803D001300238FCD100BF00BF5A
:103330007047EFF3108072B6704780F310887047C3
:1033400008B500F0D1F808BD08B500F035F908BDA2
:1033500008B527F0E3FC08BD08B500F04DFA08BD3C
:1033600008B5084801F0D2F9074800F0EFFF074818
:1033700000F054FA064800F067FA064801F0CEFE65
:1033800008BD00BF4C230110702001103420011033
:103390004C200110542301107047704700207047E3
:1033A00000487047110016000048704711001600D1
:1033B00000487047110016000048704711001600C1
:1033C00000487047110016000048704711001600B1
:1033D00000487047110016000048704711001600A1
:1033E00000207047004870471100160000487047E1
:1033F00011001600704708B512F036F808BD08B580
:1034000019F02EF808BD08B527F014FA08BD08B564
:1034100011F046FE08BD000008B5024809F0D4FFCF
:1034200008BD00BFE024000808B50348034B036053
:1034300009F080FF08BD00BFE024000841340010FF
:1034400038B5012903D0082937D0234838BD234B8C
:103450001B78012B37D0032006F02CFC204B984220
:1034600033D001F0E7FC012831D0022027F03AF8F0
:103470000546FFF75EFF1B4B186026F035FA044641
:10348000062826D0022D0BD00120FFF7B4FF022C16
:1034900000D078B1134B1868FFF74FFF0E48D5E7FF
:1034A0000220FFF7A8FF032C01D0052CF2D1002841
:1034B000CCD0EFE70AF022F8ECE70A4B1868FFF7E8
:1034C0003CFF0020C2E70448C0E70348BEE70248CB
:1034D000BCE70020BAE700BFFF004200945000089C
:1034E000010188003C500008002853D02B4A126884
:1034F000002A51D070B52A4A106001F05BFD00230C
:1035000007E0284AFF2102F8131002EB4302517032
:103510000133032BF5D9224B1B689B6ADB7E13F02A
:10352000020F35D11E4B1B685B6A03B19847002020
:103530001D4B18701D4B18701D4B186070BDDB6A59
:10354000DA68986802FB04F303EB430302EB4202E0
:103550005200002100EB43000BF036FD104D2B68AC
:10356000DB6A586804EB8403DE002822002100EBAC
:10357000C3000BF029FD2B68DB6A5B68FF229A51C0
:103580000134074B1B689A6A127FA242D7D8C9E759
:103590000024F6E7074870470648704724500008A3
:1035A0003850000870500008905000085C50000827
:1035B0008C500008010016002DE9F04399B0844BAF
:1035C0001C68002C00F00181A16ACF8A17F0030F5C
:1035D00036D107F10C05ADB28E8906EB460E4FEAE7
:1035E0000E1E1FFA8EFE488900EB800C4FEACC0CB1
:1035F0001FFA8CFCCA8812F0030F26D10C3292B24B
:10360000B1F814804FEAD80318F0070822D04FF021
:103610000109994419F0030F1FD1B8F1000F01D02F
:103620004FF00108434408339BB2D4F8309099F826
:103630002080172F1DD999F81C70013FBFB219E0E7
:1036400027F003051035ADB2C6E722F003021032B1
:1036500092B2D5E74FF00009DBE7B8F1000F01D0D7
:103660004FF00108434423F003039BB20C339BB299
:10367000DBE7032718FB07F7ADF80050ADF8027041
:10368000ADF804E0ADF80660ADF808C04000ADF854
:103690000A00ADF80C204A895200ADF80E20ADF8B2
:1036A00010300123ADF812304C22002105A80BF098
:1036B0008BFC484B0593CDF81CD005238DF82230A8
:1036C00023691B681BB1099323695B680A93236B09
:1036D0001A7F8DF83220DA89ADF820205A89ADF8AA
:1036E0002C209A89ADF82E2003228DF83020042258
:1036F0008DF831201B89ADF85830236B93F82030BA
:103700008DF85C30236B9A7F8DF83420DA7F8DF84A
:1037100035205B7F8DF833302F4B1B6803B1984702
:103720002B4B1B681B6B1B8913F0010F44D1284BDB
:103730001B681B6B1B8913F0020F40D1244B1B68C5
:103740001B6B1B8913F0080F3CD10BA826F02EFF32
:10375000D8B91F4B1B681B6B1A690692596889B14F
:103760000B460DF1360220311E685D689C68D868F2
:10377000166055609460D060103310328B42F3D1E4
:103780001B88138005A826F0B9FE90B9134B0122BF
:103790001A700F4B1B689B6A1B7E13F0050F02D03B
:1037A0000F4A0021117013F00A0F02D00D4B0022B6
:1037B0001A7019B0BDE8F08326F07FFEB7E726F057
:1037C0008AFEBBE726F080FEBFE70748F1E700BFAF
:1037D000385000087D3A0010285000089450000826
:1037E0006D50000892500008FF001600014B186051
:1037F000704700BF2450000808B5FFF715FE034BC3
:10380000034A1A60034B044A1A6008BD2850000896
:10381000293400102C5000081934001018B1034A44
:103820001060002070470248704700BF40500008F9
:103830000100160008B5034B1B6803B19847002030
:1038400008BD00BF4450000830B108B5034A1060FD
:10385000034800F0B1F808BD02487047485000081E
:10386000353800100100160030B583B004460378E7
:10387000032B0BD0374B1B689B6A1B7E13F0020F88
:1038800002D02378042B59D003B030BD314B1B68D4
:103890009B6ADB7E13F0020FECD04378807843EA1A
:1038A000002001F0C7F82B4B1B689A6A127F8242F6
:1038B000E0D9DB6A5B6800EB8000C50003EBC00069
:1038C000437A002BD6D0B4F80130ADF804309DF81F
:1038D0000530032B0DD8204AD35C033B032B08D8BB
:1038E000DFE803F0021A20261C4B1B68611C1C48F1
:1038F0009847184B1B68DB6A5B682B4400225A729E
:10390000B4F80130ADF804309DF80530032BB1D880
:10391000114A0221D154ADE7104B1B68611C1148BC
:103920009847E6E70D4B1B68611C0F489847E0E796
:103930000A4B1B68611C0D489847DAE70C4B1A7854
:10394000E3789A42A0D10B4B1B78032B9CD100F05B
:10395000C5FD99E738500008785000082450000849
:1039600008000100090001000A0001000B0001002D
:103970007C5000089450000800B583B012238DF8E5
:1039800004300389ADF802308389ADF80030094B6B
:103990001B7813F0010F05D139B18DF80510684679
:1039A0002EF020F903B05DF804FBC0682EF03AF960
:1039B000F8E700BF5C50000818B310B404460023B9
:1039C000184600E00133134A1268D26A126811796E
:1039D000994207D930B9126852F82320A242F1D196
:1039E0000120EFE778B95379994210D2136843F870
:1039F0002140084B1B68DB6A1A6813790133137185
:103A000002E00548704700205DF8044B704703480A
:103A1000FAE700BF38500008010016000300160046
:103A200070B506460D460020044606E01B6853F8B4
:103A300024302946304698470134064B1B68DB6A20
:103A40001B681A79A24204D9034A127812F0010FB6
:103A5000ECD170BD385000085C50000802468079F7
:103A600008B1002070470023052B03D8D15C11B9A1
:103A70000133F9E770470120704700002DE9F0435A
:103A800085B004460D468A4A137843F0010313704B
:103A900044F21003984200F2B780B0F5804F11D283
:103AA00041F20403984224D8B0F5805F32D3A0F5E8
:103AB0008053042B2ED8DFE813F01301B901C9019C
:103AC000DC01BE03A0F58043102B23D8DFE813F000
:103AD000B003220022002200EF01220082021D0218
:103AE0007E0222001202C7022200220022002200CF
:103AF0001D0243F21203984265D033D943F21903F1
:103B0000984207D10846FFF77EFC694A137803F014
:103B1000FE031370664B1B7813F0010F05D0654B45
:103B20001B6813B1294620469847614B1B7813F058
:103B3000010F05D0604B1B6813B1294620469847FA
:103B40005B4B1B7813F0110F09D0594A137803F01F
:103B5000FE031370594B1B6829462046984705B051
:103B6000BDE8F08342F20403984228D1544B1B680D
:103B700013F0010FCED1534E33689B6A93F9033093
:103B80008DF8043000238DF805308DF8063001A83B
:103B90002BF0BEFC33689B6A93F904308DF8043037
:103BA00001238DF80530FF238DF8063001A82BF096
:103BB000AFFC434A136843F001031360AAE743F2E2
:103BC00001039842A6D1404B00221A703D4B1B685E
:103BD0009B6A1B7E13F0050F02D03C4A0021117036
:103BE00013F00A0F02D03A4A0021117013F0030FAC
:103BF00040F0188143F212039C428BD1354B1B6875
:103C0000002B87D0984785E745F20303984200F0E0
:103C100002830FD946F2010398427FF47BAF294B10
:103C20001B689B6A1B7E13F0030F3FF473AFFFF713
:103C3000F7FE6FE745F20103984200F0538245F228
:103C4000020398427FF466AF1E4B1B689A6AD17ECE
:103C500011F0020F0BD02988ADF804109DF8051063
:103C6000032904D81C48415C072900F0BE822A8839
:103C7000ADF804209DF80520032A02D8164900203B
:103C800088549B6ADB7E13F0020F40F0BD820D4B1F
:103C90001B689B6A1B7E13F0030F03D06B780F4ADF
:103CA0000021D15429462046FFF7BAFE32E700BF73
:103CB0005C500008505000084C5000082450000888
:103CC0005850000838500008945000086D50000803
:103CD000925000082C5000087850000888500008C6
:103CE0000023A44A1370A44A1370A44A1360A44A80
:103CF0001360A44A1360A44B1E683046FFF7AEFE63
:103D000000286DD1A14B19688B6A1B781BB34FF04B
:103D1000B05090F8043603F07F0390F80526D201E6
:103D200002F47E52134390F80326920302F4F82221
:103D3000134390F80026D20402F478021A43096A69
:103D40000B7092490868006AC3F3072343700B683D
:103D5000196A130C8B708D4E3368186A2BF09AFB1E
:103D600033689A6A127E12F0050F4DD1874E336880
:103D7000986A05302BF0A4FF33681B6B1B8913F086
:103D800001014BD07F2242EAC3128DF804200029A2
:103D900046D07F2213F0020001D04FF4C0600243EE
:103DA00009B14FF4C0710A431B0203F400631343CB
:103DB000C3F307238DF8053000238DF806308DF806
:103DC00007308DF808308DF809308DF80A308DF8FD
:103DD0000B3001A82BF082FB6D4B02221A7099E682
:103DE00030462BF057FB694B1B689B6A1B7E13F018
:103DF000050FBBD0644E0021306800F0B3FA0121FA
:103E0000306800F0AFFAB1E70021186A00F0AAFAB2
:103E100033680121186A00F0A5FAA7E73F22B2E74C
:103E20003F22B7E75B4B00221A60E3E60846FFF744
:103E30001BFD564B1B689B6A1B7E13F0030F3FF460
:103E400069AE29462046FFF7EBFD63E64F4B1B6842
:103E50009B6A1B7E13F0030F3FF45CAE487800F0C2
:103E60000DFCADF80C009DF80D302978434AD15473
:103E700050E6464B1A68936A597800297FF44AAE97
:103E8000297800297FF446AE297A51B9116BC88987
:103E9000DE89414AD6801B8A93800B6903441360F4
:103EA0006A603E4A137803F0FE03137032E6374B24
:103EB0001B689B6A1B7E13F0030F3FF42BAE4879FF
:103EC00000F0DCFBADF80400304B1B689B6A5B7FA5
:103ED000012B09D0EB78002B7FF41CAE9DF8053048
:103EE0002C4A0121D15415E69DF8053069782C4AF9
:103EF000D154EFE7254B1B689B6A1B7E13F0030F21
:103F00003FF408AEFFF78CFD04E6204B1A68136BF4
:103F10001B8913F0020F1DD08B7E03BBCF7E0E7E5C
:103F2000A3B9936A1B7E13F0030F01D0012E1CD09E
:103F300013F0020F03D01B4B5B78002B36D1134BD1
:103F40001B689B6A1B7E13F0050F33D1104B0222B6
:103F50001A70DFE50B782BB94F788E78E0E70026F2
:103F60003746DDE700263746DAE70F4A00211170B1
:103F7000DEE700BF935000086E5000085450000860
:103F80007850000858500008FC24000838500008F9
:103F90009450000888500008605000085C500008E9
:103FA0008C5000087C5000086D500008A54826F091
:103FB000C5FEC4E7384600F061FBADF804009DF88B
:103FC0000530FF2BC2D0A04AD654BFE79F4B022238
:103FD0001A709FE59E4B1B689B6A1B7E03F00503CE
:103FE000052B31D09B4B1B7813F0010F3FF492ADA2
:103FF000994B1B78012B2AD0032B2CD0022B7FF45A
:1040000089AD954B00221A70914B1B685B68934AEF
:104010001178C1EBC10203EB42039A79002A3FF405
:1040200079AD9B88002B3FF475AD8D4B1B78002B31
:104030007FF470AD012000F089FA00287FF46AADAA
:10404000854B01221A7065E5FFF7EAFCCAE7824B4F
:1040500002221A705EE5804B00221A705AE57C4BF2
:104060001B689B6ADB7E13F0020F30D1794B1B7803
:1040700013F0010F3FF44EAD7A4B1B78012B29D082
:10408000032B2BD0022B7FF445AD764B00221A7008
:104090006F4B1B68DB68744A1178162202FB0133F0
:1040A0009A79002A3FF436AD9B88002B3FF432AD5D
:1040B0006E4B1B78002B7FF42DAD012000F0A0F992
:1040C00000287FF427AD674B01221A7022E5FFF725
:1040D000A7FCCBE7634B02221A701BE5614B002261
:1040E0001A7017E55A4B1B689B6ADB7E13F00203BC
:1040F0000AD00A88ADF804209DF80520032A03D8C9
:104100005B498A5C012A23D0002B31D12B88ADF882
:1041100004309DF80530032B02D8554A0221D154B2
:104120006A782988534B23F812106B78524A002181
:10413000D154474B1A68936AD97E11F0010F02D00F
:104140005B7F012B1BD029462046FFF769FCE1E489
:1041500028786A78474911F812108842D4D12B8800
:10416000ADF80430032AE0D8414B07219954DCE72D
:104170002B78687843EA002000F0DCFBC6E713697F
:104180001E7C002EDFD006F101086F7806FB077752
:10419000D86899682B7806FB0333424619443844A3
:1041A0000AF004FFDFF8A890D9F800301B69D8683E
:1041B000197C384400F0AEFCD9F800301B69DB688C
:1041C0003E449B5D8342BED02C4B1B6800212C4893
:1041D0009847D9F800301B69DB68687842460021AF
:1041E00008FB00300AF0F0FEADE7527F012A7FF4B1
:1041F0003EAD2B88ADF804309DF80530032B3FF61B
:1042000046AD0121C15442E52B78687843EA00208D
:1042100000F090FB3BE50B88ADF804300C4B1B68BD
:104220009B6ADB8AADF8063001A82DF0E7FC71E44B
:10423000FFF7F6FB6EE4134A137843F001031370A3
:1042400068E400BF7C5000088050000894500008CB
:10425000385000085C5000086D5000086C50000891
:104260006E500008925000089150000893500008CA
:10427000785000087050000854500008245000087E
:10428000040001009050000830B583B004460D468C
:10429000A0F5A0430C3B0B2B39D8DFE803F0063820
:1042A00040404038383840383843084600F096FAE5
:1042B000014670B32846FFF75FFB214B1B7813F0D4
:1042C000110F04D01F4B1B682946204698472B89A5
:1042D0001B4A127812F0010F14D01B4A1268926A1E
:1042E000928A9A4200D36BB912228DF80420ADF85D
:1042F0000230AB89ADF8003001238DF805306846F7
:104300002DF070FC0E4A137803F0FE03137003B017
:1043100030BD29462046FFF783FB0146CAE7FFF779
:104320007FFBF4E7084B1B681B691B7C23B92946FC
:104330002046FFF775FBEAE7084600F0C3FAF6E708
:104340005C500008245000083850000818B1034A97
:104350001060002070470248704700BF845000087A
:1043600001001600254B1B68002B46D070B5054692
:104370000E46002420E0214B1B681B6804EB8402DE
:1043800003EB8203D96891F81FE021E00120734517
:104390000AD248B9CA5C3AB1013311F803C0BCF182
:1043A0001B0FF3D01344F2E7A8B90134134B1B6879
:1043B0009B6A5B7EA3421FD9002EDCD10F4B1B688A
:1043C0001B6804EB840203EB8203996891F81FE0F9
:1043D00000231846DBE70133AA79CA54002208E01B
:1043E00002EB030C0CF1010C15F802E001F80CE0F3
:1043F0000132052AF4D9D8E770BD7047385000085B
:10440000022859D838B52F4B1B68002B56D02E4A9E
:104410001278002A54D12D4A117058BBDC6816223C
:1044200001FB02F2144401EB410C9D6805EB8C0E7C
:10443000A488AEF80840DC689B6803EB8C03A45AA0
:104440005C80204B1B68DC6822449B6803EB8C0378
:1044500052889A801E4B18701A4B1B68986801EBA3
:10446000410100EB810029F0BDFE50BB164B01223B
:104470001A7026E00128EDD1DC68162201FB02F259
:1044800004EB020E9C6801EB410C04EB8C04BEF8BB
:104490000CE0A4F808E0DC6814449B6803EB8C0390
:1044A00024895C80074B1B68DC6822449B6803EB13
:1044B0008C0352899A80CDE706487047064800E091
:1044C000054838BD38500008925000089150000847
:1044D0009350000801001600FF00160010B50B4BAA
:1044E0001B78032B02D00A4C204610BD29F068FE31
:1044F0000446084B5B782BB9002CF5D1034B022204
:104500001A70F1E7034826F019FCF5E7945000080B
:10451000FF0016007C5000080A4B196811B10020FA
:10452000034602E00020704701330A6B92F8202016
:104530009A4206D9044AD25C012AF5D90130C0B2A8
:10454000F2E77047385000087850000870B5444BC7
:104550001D68002D7CD006460C4602287AD8AB6A2E
:104560005A7E8A4278D91B7E13F0010F06D0FFF7DE
:10457000D3FF2B6B93F82030984239D0394B1B78FE
:10458000002B6BD1384B1C70002E3ED16B68C4EBF6
:10459000C40203EB42012B6804EB840403EB8403A5
:1045A0008988198269682B6803EB84035B6831F89A
:1045B000121019802A4B19684B6803EB42030A68F2
:1045C00002EB840462685B885380284B1E70244B86
:1045D0001B681868244B1B7803EB830300EB8300F4
:1045E00029F02EFE002836D11E4B01221A7032E02F
:1045F0002B6804EB840203EB82035B681B79023BAC
:10460000DBB2012BBAD91A4825E0012EDDD16B6847
:10461000C4EBC40203EB42012B6804EB840403EBFC
:104620008403898919826B6803EB4203296801EBD3
:10463000840149681B890B80094B19684B6803EB9F
:1046400042030A6802EB840462685B895380BCE71A
:10465000074800E0074870BD0648FCE70648FAE74F
:10466000385000086D5000086C5000086E5000086B
:104670000200160001001600FF00160010B485B0FD
:104680001E4B1B89ADF808301D4B196811B3002370
:1046900000E001330A6B92F820209A4216D9194A99
:1046A00032F81320ADF804209DF80520032AF0D835
:1046B000154CA25C012AECD9124A12F8132082424E
:1046C000E7D1104A32F81330ADF808309DF80930C0
:1046D000FF2B10D0BDF80830ADF80C3000209DF84D
:1046E0000C3063F307009DF80D3063F30F2005B025
:1046F0005DF8044B704701BEECE700BFB82A01101B
:10470000385000087050000878500008B8B100B563
:1047100083B00C4A10600C4B0C4A1A600C4B1B689F
:104720009A6900929B6A9A8AADF804205B8AADF878
:10473000063068462EF028F903B05DF804FB054802
:10474000704700BF98500008505000088942001080
:10475000385000080100160070B505462EF060F9CB
:10476000044680B91A4B1B686BB11869067C56B1B8
:1047700099692A8902EB82029200143A0A4451682C
:1047800011F0007F01D1204670BD126952685B694B
:10479000D21AEB7B06FB03331344C068AA8829684E
:1047A00018440AF003FC0A4B1B689B6A1A7E12F03D
:1047B000030FE8D05B7F012BE5D1EB7B054AD35C8F
:1047C000012BE0D1044A137843F002031370DAE7B7
:1047D000385000088C5000089050000830B587B061
:1047E0000289194B1B681B689B889A4203D00025DD
:1047F000284607B030BD044601AB07C883E8070070
:10480000A289ADF8122040228DF814200022ADF8C4
:1048100010201846FFF7A0FF054648B923681B780B
:1048200013F0020F0AD0094B1B682146084898472D
:10483000084A137803F0FE031370D9E7034B1B6893
:10484000214605489847F3E798500008245000088F
:10485000050001005C5000080600010038B503891E
:1048600033B3174A12682AB3916A898A8B4223D8D4
:10487000C17B146B94F820C061451FD203EB830306
:104880009B00143B946923445C6814F0007F0CD0B7
:10489000156995F810C01B695C685369E31A0CFB35
:1048A00001111944EB685B5A23802EF087F800E071
:1048B000012038BD0120FCE70120FAE70120F8E7DC
:1048C00038500008438843B3194A12683AB3916AD2
:1048D000898A8B4225D84178106B90F8200081425C
:1048E00021D2906903EB83039B00143B0344586877
:1048F00010F0007F19D010B4146994F810C01B692F
:1049000058685369C31A0CFB01111944E3685B5AD8
:10491000038000205DF8044B7047012070470120A0
:10492000704701207047012070470020704700BF8A
:104930003850000870B582B0ADF80400394B1B68E0
:10494000002B65D0DA6A002A65D09B6A002B64D000
:104950005068002863D09DF80460FF2E28D0002402
:10496000FF2100E001342F4B1B689A6A127FA2429C
:1049700019D9FF2917D1DB6A5B6804EB8402D500E3
:1049800058195A59284B13F812309E42EAD128225E
:1049900000210AF019FB234B1B68DB6A5B68FF22CE
:1049A0005A512146DEE7FF291BD0002000231BE0DF
:1049B0001B7F03EB8303DA0000210AF005FB0023D1
:1049C00007E0D26A506803EB8301CA00FF218150DF
:1049D0000133144A1268916A097F9942F1D8002084
:1049E000E4E71248E2E701330E4A1268126B92F8CC
:1049F00020209A420DD90C4A12F813209642F2D187
:104A0000094AFF2102F8131002EB43025170EAE752
:104A1000074802B070BD0648FBE70548F9E70448BF
:104A2000F7E700BF38500008705000080700160074
:104A3000FF00160030B482B0ADF80400104B1D68C2
:104A4000CDB1AB6A93F81CC06046002300E001338F
:104A5000634511D260450FD1EA6A546803EB8301C4
:104A6000CA00A158074A12F811109DF8042091427B
:104A7000EDD11846EBE7002002B030BC704700BF14
:104A8000385000087050000808B5FEF7B8FC034B1A
:104A90001B680BB100B1984708BD00BF9C500008CF
:104AA00008B504F0FDF80A4B02229A67094B1B680F
:104AB0005B6B1B68B3F90030002B07DB03F01F01B1
:104AC0005B0901228A40044941F8232008BD00BF48
:104AD00000F03D40A050000800E100E004207047D5
:104AE00070B5C0B006460C4615464FF480720849B2
:104AF00068460AF05BFA05E016F8012B6A401DF8DB
:104B00000250013C002CF7D1284640B070BD00BFD8
:104B1000C42A011008B50022FFF7E2FF08BD00001B
:104B2000124B1B681B6B588CC3B2000A012B08D0B8
:104B3000022B0BD0012B0ED09BB9442813D00020A0
:104B4000704788B17428F3D10020704738B16828C5
:104B5000F0D1012070477C28EED10220704701205F
:104B60007047002070470320704700BFA050000826
:104B7000034B1B6813B11B6B1878704700207047FC
:104B8000A050000808B5FEF742FC08BD2DE9F04F23
:104B9000ADF5097D80460E4617460293B1F1805F60
:104BA00010D2B1F1A05F03D38A18974B9A4209D96A
:104BB000964B9E4240F21881F21903F201239A4269
:104BC00000F2158108F078FF38B308F07DFF0390FC
:104BD000022818D001230493002301938C4B019ADF
:104BE0009A422DD006F17046730A009326F4FF74A2
:104BF00024F001040021032004F0E2FF8246002893
:104C0000F8D1054653E0052008F080FD0190814B66
:104C10009842F8D001230493E0E708F0ADFF049038
:104C200048B9012009F060F87A4B9842F9D0019018
:104C300005230393D2E70523039300230193CDE7D4
:104C400001BECFE7002210E004F18052127808A9DB
:104C5000CA5401340133B3F5007F15D2B442F3D303
:104C6000BD42F1D20028EDD0425D08A9CA54B9F185
:104C7000000F07D104F180510978C9B2914201D0E7
:104C80004FF001090135E4E780466046B9F1000FB5
:104C90000AD0029BCBB1009B03F5002008A940027B
:104CA00004F0AAFA82464846009B01330093019B18
:104CB000002B5DD1BAF1000F5AD1BD4258D25346F4
:104CC0004FF0000984464046C5E74FF0C80B0595F4
:104CD00006945D46DDF800B00BF500246402204622
:104CE00004F04CFA8246013D012008F0C1F80AF4B4
:104CF000A403B3F5A40F01D1002DEDD10794059DB8
:104D0000069C454B9A4507D0BAF1000F0BD0424B99
:104D10009A4525D04846C7E704F0AAFA82463F4B99
:104D20009842F9D0F0E74FF0C80B0595079D5B4618
:104D3000A3461C4608A9284604F09EFA8246013C78
:104D4000012008F095F80AF4A403B3F5A40F04D1E8
:104D5000002CEFD1059D5C46D9E7059D5C46D6E762
:104D600004F086FA82462D4B9842F9D048469BE7DC
:104D7000D0B90021032004F05FFF0028F9D1019B86
:104D8000ABB1019B002B35D1254B9A4535D004336F
:104D90009A4535D0BAF1000F01D0DFF888A050460F
:104DA0000DF5097DBDE8F08F08F06CF8E1E708F03B
:104DB00083FE10B1039B022B0ED008F0EDFE0028FD
:104DC000DFD0049B002BDCD1002008F08DFF019088
:104DD000104B9842F8D0D4E7022008F097FC0190DD
:104DE0000C4B9842F8D0E8E7DFF83CA0CCE7DFF8BE
:104DF00038A0C9E7DFF834A0D1E7DFF834A0CEE768
:104E0000DFF82CA0CBE700BF00800014FF070016DE
:104E10000300420004004200010050000200500064
:104E20000200520013001600060052001200160085
:104E30000100160010B5002400E00134074B1B6888
:104E400093F83E30A34206D9204607F06FF90328B5
:104E5000F3D1012000E0002010BD00BF5C5200082B
:104E6000014B1868704700BF604E000808B506F097
:104E7000B7FF012802D0032801D0002008BD01207F
:104E8000FCE708B506F0ACFF08BD08B507F074FCF8
:104E900008BD08B507F01AFC08BD000070B504464F
:104EA0000D461646032004F005FF054B984205D039
:104EB00032462946204607F067FC70BD0148FCE7F2
:104EC0000101880003004A0008B507F013FD08BD82
:104ED00008B507F0CDFF08BD094B1B685B6B6BB1D4
:104EE0001B685BB1B3F90030002B07DB03F01F0137
:104EF0005B0901228A40034941F82320704700BF23
:104F0000A050000800E100E00B4B1B685B6B93B105
:104F10001B6883B1B3F90030002B0CDB03F01F01D9
:104F20005B0901228A402033044941F82320BFF362
:104F30004F8FBFF36F8F7047A050000800E100E073
:104F400008B5FEF7F6F908BD08B5FEF7F6F908BD95
:104F500008B508F0D3FA08BD08B5002108F0CCFD6B
:104F600008BD000058B1B1F5FD7F01D30548704779
:104F700008B501230A460449FFF708FE08BD0148A9
:104F8000704700BF010016000708001658B108B5A9
:104F9000B1F5FD7F01D3054808BD0A4604490AF072
:104FA00005F80020F8E70148704700BF010016002F
:104FB00007080016014B1860704700BFA05000089A
:104FC0000388AE2202FB03F3A3F26F33024AA2FB73
:104FD0000323DB080B807047CDCCCCCCB0F900307C
:104FE00042F64B0202FB03F3044A82FB0302DB1787
:104FF000A3EB2233BD330B80704700BFAD8BDB6862
:1050000070B504460D46074B1B684BB198470646E2
:10501000054B1B6813B1294620469847304670BDA2
:105020000026F5E7A8500008A45000081D4B1B6897
:10503000002B36D010B588B004461B4B1B681B688C
:105040005A8803899A4201D008B010BD8388012B89
:10505000FAD103681B78022BF6D803AB07C883E8A4
:105060000700A289ADF81A200022ADF818204022CE
:105070008DF81C201846FFF76FFB0028E4D1A389A8
:10508000ADF8043000238DF806300294054B1B6800
:1050900001A906489847064A137803F0FE031370E7
:1050A000D2E77047AC500008B0500008BF000100C4
:1050B0005C50000800B587B000238DF817308DF8DC
:1050C0000E308DF80F300B4A126812685288ADF816
:1050D00008200122ADF804200DF117020092ADF86E
:1050E0000C308DF810306846FFF736FB07B05DF8DE
:1050F00004FB00BFB050000808B583B245F20202BD
:10510000934208D045F20E02934202D10846FFF7BF
:105110008DFF002008BDFFF7CDFFFAE748B108B5C5
:10512000054A10600548FEF747FC054B054A1A6022
:1051300008BD0548704700BFB0500008015000107E
:10514000A8500008F950001001001600014B18602B
:10515000704700BFAC5000081AB3134618BB0129B2
:1051600001D01248704700B587B000228DF8122098
:105170008DF813200E48006800684088ADF80C00D8
:10518000ADF8081001938DF81420ADF8102001A897
:10519000FFF764FB18B1054807B05DF804FB002079
:1051A000FAE7024870470148704700BF0100160047
:1051B000B050000801BE0148704700BF020202045F
:1051C000024B0B6007231360002070473C2500084A
:1051D00008B5407807F074FD08BD000038B50546F5
:1051E00014468A4294BF00230123834209D080F0F1
:1051F00001038A422CBF002101218B4201D04DB115
:1052000038BD08F013FD0549A1FB0431890C07F0F6
:10521000BFFEF4E7FDF74EFFF2E700BF83DE1B435E
:105220002DE9F04104460A78A2F10D03DBB2012B0F
:1052300004D90F2A2FD14E78013600E04E78002095
:1052400006F0A0FE0746002006F06AFE07F018FDF3
:1052500020FA07F8304607F013FD20FA07F76378C5
:105260006BB1F1B2607806F03BFE054663789BB9FE
:1052700058B93A4641460020FFF7B0FF0CE03A46E5
:1052800041460120FFF7AAFFEBE7424639460020DE
:10529000FFF7A4FF00E0024D2846BDE8F08100BF03
:1052A00001020204F8B505460139072935D8DFE8BF
:1052B00001F00426340634343424002600E00226AB
:1052C000002006F05FFE0746002006F029FE07F0EA
:1052D000D7FC20FA07F720FA06F46B788BB1314639
:1052E000687806F02FFE06466B78BBB978B922467F
:1052F00039460020FFF772FF10E00326E0E70126A1
:10530000DEE7224639460120FFF768FFE7E73A4625
:1053100021460020FFF762FF00E0014E3046F8BD55
:105320000002020408B519B1407806F093FD08BDEB
:10533000407806F0B9FDFAE708B5407806F0A2FD1E
:1053400008BD00002DE9F84304460E461546DDF879
:105350002080DDF8249001279F404FEA520C1CEB7F
:1053600000004FF0000341F1000109F055FCC9F8BD
:105370000000B84201D9C9F80070B8F1000F19D087
:10538000D9F8002000232046314609F045FC0246AA
:10539000294698F8000003F027FA0028B8BF4042D9
:1053A000B8F1000F08D0D8F80430834206D30020AB
:1053B000BDE8F8830020F3E70020F9E70048F7E7AD
:1053C0000002020408B590F800C01CF0020F06D1DC
:1053D0004A1E41780CF0030006F0C0FA08BD002315
:1053E0004A1E41780CF0030006F01CFBF6E770B58E
:1053F00084B004460D46164607F072FC0146237839
:1054000013F0020F0ED013F0010F24D01D2303AAB6
:10541000019200962A464801C90EFFF793FFE0B1BA
:1054200004B070BD13F0010F13D0102303AA019232
:1054300000962A4608460021FFF784FF0028EFD196
:105440002078039A013A617800F0030006F086FAAA
:10545000E6E70823EAE71523D9E7039B5A092078F2
:1054600003F01F03013A617800F0030006F0DAFA56
:10547000D6E708B50378417803F0030007F049FC4C
:1054800008BD08B531B10378417803F0030006F098
:10549000AFFB08BD0378417803F0030006F0EAFB98
:1054A000F7E708B50378417803F0030006F014FC31
:1054B00008BD000000487047D83601102DE9F041C2
:1054C00082B007460D469046084603F0BFF9C6B2C3
:1054D000002401E00134E4B2B44213D205238DF874
:1054E00004308DF805508DF8064001A800F0F0F961
:1054F00003460028EED13D707C700122BA70C7F8D7
:10550000048000E0024B184602B0BDE8F08100BF05
:10551000020E020430B583B00C46054678B184B162
:1055200005238DF8043023788DF8053063788DF8E5
:10553000063001A800F0CCF928B103B030BD01BE9F
:10554000EDE701BEECE7226863682A606B60012327
:10555000AB70F2E708B5034648B11A78122A08D0B2
:10556000032A0AD95A6812681846904708BD01BE36
:10557000F3E71846FFF7E0FEF8E71846FFF791FF5C
:10558000F4E710B5034648B11878122808D003286C
:105590000AD9586844681846A04710BD01BEF3E711
:1055A0001846FFF7BFFEF8E71846FFF76AFFF4E773
:1055B00010B5044668B12046FFF7CCFF98B12378B8
:1055C000122B08D0032B0AD963689B6820469847A2
:1055D0000AE001BEEFE72046FFF7FAFD04E02046AF
:1055E000FFF747FF00E0002010BD10B5034648B1AB
:1055F0001878122808D003280AD95868C4681846B1
:10560000A04710BD01BEF3E71846FFF7D3FDF8E74A
:105610001846FFF7ECFEF4E708B5034648B11A78E0
:10562000122A08D0032A0AD95A68126918469047E4
:1056300008BD01BEF3E71846FFF734FEF8E7184649
:10564000FFF7C0FEF4E710B582B0044690B1A3782E
:1056500003B901BE05238DF8043023788DF8053099
:1056600063788DF8063001A800F076F90023A37066
:1056700002B010BD01BEEAE708281CD8DFE800F040
:105680000923051E0B0D0F1113000A20012917D045
:105690007047082070470C20F8E70D20F6E70E2031
:1056A000F4E70F20F2E74B1EDBB2012B01D90820F3
:1056B000ECE70E20EAE701BE0820E7E70B20E5E76C
:1056C00000F0070070470020E2E700002DE9F043FA
:1056D00087B0884617461E462D4B1B78DBB94FF026
:1056E000000C07E02B4C002544F82C500CF1010C69
:1056F0005FFA8CFCBCF10E0FF4D9002406E0254BB8
:1057000003EB440300229A870134E4B2032CF6D958
:105710001F4B01221A700B238DF80830C4088DF836
:10572000094000F007058DF80A50029BADF81430CF
:105730001B0C8DF81630059BADF810301B0C8DF846
:105740001230049BADF80C301B0C8DF80E3003A802
:1057500000F0BEF8814618B1484607B0BDE8F083B6
:1057600041463846FFF788FF02460E2C0BD80A4BFD
:105770001B68986900EBC410002300933346294648
:1057800003F05AFEE8E7044B1B689869F4E700BF92
:10579000B4500008E04A00085C52000870B50428C4
:1057A0000DD00D46114602463C4C34F810E0441C26
:1057B0001D2C07D8E4B2394E36F8144004E00D250C
:1057C0000520F0E740F20B144FF0010C0CFA02FC3C
:1057D000334A0CEA02023AB9AE44A3F800E01B884F
:1057E000A34258D2002070BDC21E182A32D8DFE86A
:1057F00002F00D313431310F253129313131313160
:105800002B312D3131313131312F2700254A00E044
:10581000254A1C80002AE2D00338182836D8DFE851
:1058200000F01E353835351E2F35313535353535D7
:105830001E351E353535353535331E001B4AE8E734
:105840001B4AE6E71B4AE4E71B4AE2E71B4AE0E79C
:105850001B4ADEE701BE0022DBE71A4AD9E7012630
:10586000B542BCD232F81500704411FA80F11980AB
:10587000691CB142B3DA32F811407444A4B2AEE705
:105880000226EDE71026EBE70226E9E701BE002637
:10589000E6E71A26E4E70C48A5E700BF88370110C1
:1058A000280B0A0C1837011050370110543701101B
:1058B0008437011058370110783701107C370110F8
:1058C000803701101C370110000E020400207047C1
:1058D000F0B583B004460027FDF72BFD06460DF119
:1058E0000603A27861782078FFF758FF054668B96B
:1058F000BDF80630C3F3C70203F007031449895CFF
:10590000012202FA03F3194218BF174605B9EFB98D
:105910002DB13046FDF711FD284603B0F0BD0DF165
:105920000603A27861782078FFF738FF0546002843
:10593000EFD1BDF80630C3F3C70103F007030448F5
:1059400001229A40435C13434354E2E7014DE0E7F0
:10595000B8500008010E020430B583B00446FDF7CC
:10596000E8FC05460DF10603A27861782078FFF780
:1059700015FF024660B9BDF80630C3F3C70003F057
:105980000703074C01219940235C23EA01032354B8
:1059900002B101BE2846FDF7D0FC03B030BD00BF08
:1059A000B85000082DE9F04F85B080460F4692466A
:1059B00001935D4B33F81020431C1D2B12D8DBB232
:1059C000594931F81390012303FA08F3DFF884B141
:1059D00003EA0B0BA9EB02091FFA89F900252E46F1
:1059E0002C4617E040F20B19EDE70123BAF1000F46
:1059F00008D031462046019B9847BAF8001000F0C5
:105A000078FD0346BBB9BBF1000F26D10134E4B2E7
:105A10000135ADB24D4580F08180002FE5D0314693
:105A200020460E9B98470146388800F062FD0346E9
:105A30000028E7D0DAE78DF80C808DF80D408DF85E
:105A40000E6003A8FFF744FF03460028DBD10F9A3E
:105A500082F800805470967061E0A8F10303182B5F
:105A600030D8DFE803F00D2F322F2F0F232F272FF1
:105A70002F2F2F2F292F2B2F2F2F2F2F2F2D25007B
:105A80002A4A00E02A4AA8F10303182B32D8DFE89B
:105A900003F01E313431311E2B312D313131313192
:105AA0001E311E3131313131312F1E00214AEAE7DA
:105AB000214AE8E7214AE6E7214AE4E7214AE2E70A
:105AC000214AE0E701BE0022DDE7204ADBE70121B1
:105AD000631C08468B4204DA32F813106B1C99429F
:105AE0000DDD0136F6B293E70221F1E71021EFE771
:105AF0000221EDE701BE0021EAE71A21E8E70134BF
:105B0000E4B2631C984207DD32F8131032F8143007
:105B10009942F4D000267BE7002679E70C4B184623
:105B200005B0BDE8F08F00BF8837011018370110AD
:105B300050370110543701108437011058370110C5
:105B4000783701107C370110803701101C370110A5
:105B5000020E0204280B0A0C00B583B0019100214B
:105B600000910B460A46FFF71DFF03B05DF804FBEA
:105B70002DE9F04782B00446884617469A461E2310
:105B80000371FF230372C371002505752B4606229E
:105B90004049404601F0CEFA06462B4605223E49D2
:105BA000384601F0C7FA002E6AD0054600286AD0B0
:105BB000327803789A4226D00023002B66D0172330
:105BC0008DF804302B788DF805306B788DF8063021
:105BD00001A8FFF77DFE8146E8B1B9F1000F2ED094
:105BE000B9F1000F08D1BAF1000F31D004F10C0364
:105BF0009AE8030083E80300B9F1000F35D0484666
:105C000002B0BDE8F087727843789A4201D0002351
:105C1000D3E70123D1E79DF80520204B53F822302C
:105C20002360019BA3801B0CA3710C21304602F062
:105C300067FD81460028D0D184F80780CDE70C218C
:105C4000284602F05DFD81460028C9D12772C7E7CA
:105C500001231A46211D04F10C0002F015FE8146B5
:105C6000B0FA80F040092075C6E700230C4A0121F4
:105C7000204601F0D1F90028C1D1DFF82890BEE715
:105C8000DFF82490BBE7DFF82090B8E7DFF8189042
:105C9000B5E700BFD82B0110C42B0110F03701105D
:105CA000A0860100010A0204000A020470B504463D
:105CB0000368ABB10023A4F88A3084F88C30C4F8B0
:105CC0009030C4F89430C4F89830C4F89C30224620
:105CD00052F8180B04F014FD054618B1284670BDA3
:105CE00001BEE7E7164A2146607901F09DFA226875
:105CF000136843F0004313600023C4F8A030C4F8D5
:105D0000A430C4F8A830C4F8AC30C4F8843084F8A7
:105D1000883063790B4E0C4A032136F9130000F0EA
:105D20003DFC637936F91330002BD7DB03F01F01FC
:105D30005B0901228A40054941F82320CEE700BFD4
:105D4000AD5D001014380110515D001000E100E05D
:105D500070B5154D2E6801F04DF9044628600546D2
:105D600055F8180B294605F036FAB4F88A3013B9FD
:105D70000D4B1E6070BD2946206804F061FF10F4D1
:105D8000803FF5D1B4F88A30032B03D00023A4F868
:105D90008A30EDE70123A4F88A30214651F8640BDC
:105DA0002A4604F04FFFE3E7DC50000800B583B05B
:105DB0000B4650F8181B00910190022B05D0042BC4
:105DC0000BD0012003B05DF804FB1146684604F0D7
:105DD00085FDB0FA80F04009F4E71146684604F00A
:105DE000DFFDB0FA80F04009ECE7000010B5044692
:105DF00088B1206840B104F1180104F063FD206807
:105E000004F03AFD0023236023791E2B05D194F87A
:105E1000B03023B310BD01BEEBE70022114660791C
:105E200001F002FA6279154B33F91230002B0CDBCA
:105E300003F01F015B0901228A402033104941F819
:105E40002320BFF34F8FBFF36F8F94F8B03013B19F
:105E50001E232371DBE7201DFFF77EFDF8E7E01D21
:105E600002F029FC04F1080002F025FC237D002B40
:105E7000D0D004F10C00FFF7E6FBCBE7143801109B
:105E800000E100E0F8B50D4616461F46044688B10D
:105E9000002184F8B010B422204609F095F83B4662
:105EA000324629462046FFF763FE054620B14DB92C
:105EB0002846F8BD01BEEBE704492046FFF7F6FE91
:105EC0000546F4E72046FFF791FFF1E7C4370110DC
:105ED000F0B587B00C46074660B36CB374B33E466A
:105EE00056F8180B314604F0EDFC0DF1040C1E4D74
:105EF0000FCDACE80F002B68CCF800302378FBB155
:105F000001238DF80430A3788DF8073023783BB156
:105F1000637A8DF809308DF80A30237A8DF80830CD
:105F2000324601A9386804F0EBFB054650B128461B
:105F300007B0F0BD01BED0E701BECFE701BECEE79E
:105F40000223DEE7237862680121384601F064F815
:105F500028B13A68136843F000431360E7E73868F4
:105F600004F08AFC014DE2E7C4370110010A020483
:105F700000B585B0024688B191B101AB03C983E891
:105F80000300FE218DF80C1000218DF80D1019462C
:105F90001046FFF79DFF05B05DF804FB01BEEBE77F
:105FA00001BEEAE72DE9F04383B006460F461546E9
:105FB0001C46DDF828809DF82C9001F02FF9002870
:105FC00037D1F369B3F1805F11D0334653F8180B22
:105FD000009343460022394604F03CFF07468FB148
:105FE000B9F1000F1ED1384603B0BDE8F083334647
:105FF00053F8180B009343460022394604F0C4FEC0
:106000000746ECE7002CEBD0334653F8180B42461A
:10601000297804F0F3FF07460028E1D1013CA4B23F
:106020000135EFE7324652F8180B414604F06EFF97
:10603000D9E7014FD7E700BF031A02042DE9F04763
:1060400082B00646884615461C460A9F9DF82C904D
:1060500001F0E4F8002842D1F369B3F1805F13D076
:10606000334653F8180B00933B460122414604F097
:10607000F1FE8246BAF1000F27D0B9F1000F27D107
:10608000504602B0BDE8F087334653F8180B009332
:106090003B460122414604F077FE8246EAE733465A
:1060A00053F8180B00933B462A46414604F05AFF2A
:1060B00082460028E1D1013CA4B20135002CDCD09D
:1060C000012CECD14FF00108E9E74FF00008F5E7AB
:1060D000324652F8180B394604F018FFD0E7DFF8C3
:1060E00004A0CDE7031A020402460023184603B1B8
:1060F000704702B118460133DBB2F8E710B5044629
:10610000FFF7F2FF204610BD074B1A689368B2F8FC
:1061100070C06344B2F8722002FB00F000EB810013
:10612000C058C0B2704700BF5C5200082DE9F04172
:10613000044615469DF818207AB9144B1A689368DE
:10614000B2F870100B44B2F8720000FB04F404EBD8
:1061500085040020E050BDE8F0810E461F46FFF7A1
:10616000CDFF4FEA002846EA00262046FFF7BCFF95
:1061700045EA080444EA00413B46002241F08041E0
:1061800046EA004007F0D4FFE5E700BF5C52000894
:106190002DE9F047054690461C469DF824709DF871
:1061A00028909DF82C30DBB92B490A689368B2F827
:1061B00070000344B2F8720000FB05F505EB88059A
:1061C0000020E8500A689368B2F870100B44B2F8E7
:1061D000722002FB04F404EB8704E050BDE8F08772
:1061E0000E46FFF78BFF4FEA002A46EA00262846B4
:1061F000FFF77AFF46EA004648EA0A0545EA004505
:1062000045F080452046FFF779FF4FEA00289DF8CA
:1062100020A04AEA002A2046FFF766FF4AEA004A21
:1062200047EA080848EA004848F0804839462046CE
:10623000FFF76AFF08B10948D0E74B46002229461C
:10624000304607F075FF0028C8D14B460022414672
:10625000504607F06DFFC1E75C520008000D0204D4
:106260002DE9F04F89B09046420800F001030593F4
:10627000964B13F80190964B5B5C0693B9F1090FAE
:1062800007D0B9F10A0F34D0002319461C460A255D
:1062900073E0931F9BB21F2B00F20681A1F2D7136C
:1062A0009BB2072B00F20281053A95B2DCB221467F
:1062B0000920FFF729FFB8F1020F02D0002840F0B3
:1062C000F780B8F1020F02D1002800F0F380B8F196
:1062D000000F01D10020CBE0B8F1010F14BF002363
:1062E00001230093059B2246E9B20920FFF71EFF18
:1062F000BEE0B1F5E67F44D9B1F5EA7F46D8931FF9
:106300009BB21F2B00F2D880053A95B2A1F2CD11B5
:10631000CCB221460A20FFF7F7FEB8F1020F02D0F7
:10632000002840F0CB80B8F1020F02D1002800F025
:10633000C780B8F1000F01D1002099E0B8F1010F3A
:1063400014BF002301230093059B2246E9B20A20D3
:10635000FFF7ECFE8CE00134A4B25E4B33F815304D
:10636000A34207D95C4B53F8253033F814309342DD
:10637000F1D1012179B90135ADB20E2D0BD8002430
:10638000EBE7002319461C460A25F6E700231946C9
:106390001C460A25F1E70491002900F09380A5F13D
:1063A0000A03042B00F29080DFE803F003150B0EC4
:1063B0001100D020C92100231F469B4642F2107ACB
